:100000000C9446000C9458000C9458000C94580022
:100010000C9458000C9458000C9458000C94580000
:100020000C9458000C9458000C9458000C945800F0
:100030000C94CB000C9458000C9458000C9458006D
:100040000C9458000C9458000C9458000C945800D0
:100050000C9458000C9458000C9458000C945800C0
:100060000C9458000C9458000C9458000C945800B0
:100070000C9458000C9458000C9458000C945800A0
:100080000C9458000C9458000C94580011241FBE76
:10009000CFEFD0E1DEBFCDBF11E0A0E0B1E001C005
:1000A0001D92A530B107E1F70E947D000C94080174
:1000B0000C94000096B3982379F42FEF39EF40E0C9
:1000C000215030404040E1F700C0000096B3982333
:1000D00081E019F080E0089580E0089595B39827B5
:1000E00095BB08958EB589608EBD87B7806187BF47
:1000F00080E89EE39BBD8ABD0895FF920F931F93F6
:10010000CF93DF93A49AAC9A87B3887F87BB87B3DA
:10011000807F87BBC29AC39A1092040181E090E06D
:10012000909303018093020184EF91E09093010189
:10013000809300010E9472007894C0EDD7E002E342
:1001400010E0FF24F39484E00E945A00882321F0F9
:10015000D0930101C093000188E00E945A008823D7
:1001600021F0109301010093000180910401882384
:1001700051F780910201909103016091000170910B
:1001800001010E94F4000097F1F680E10E946E00E8
:10019000F0920401D8CF1F920F920FB60F92112444
:1001A0002F938F939F938091020190910301019669
:1001B0009093030180930201109204018091020147
:1001C0009091030127E18137920730F081E090E0C0
:1001D00090930301809302019F918F912F910F9033
:1001E0000FBE0F901F901895AA1BBB1B51E107C0B3
:1001F000AA1FBB1FA617B70710F0A61BB70B881FB7
:10020000991F5A95A9F780959095BC01CD01089545
:04021000F894FFCF90
:00000001FF
